:020000040800F2
:10000000A804002005010008D32000084D1B0008AB
:10001000D120000831090008C523000800000000B5
:10002000000000000000000000000000FD200008AB
:100030003309000800000000D5200008FF20000858
:100040001F0100081F0100081F0100081F01000810
:100050001F0100081F0100081F0100081F01000800
:100060001F0100081F0100081F0100081F010008F0
:100070001F0100081F0100081F0100081F010008E0
:100080001F0100081F0100081F0100081F010008D0
:100090001F0100081F0100081F0100081F010008C0
:1000A0001F0100081F0100081F0100081F010008B0
:1000B0001F0100081F0100081F0100081F010008A0
:1000C0001F0100081F0100081F0100081F01000890
:1000D0001F0100081F0100081F0100081F01000880
:1000E0001F0100081F0100081F010008DFF810D0E1
:1000F00000F08EFB00480047E9310008AFF30080B4
:10010000A80400200648804706480047FEE7FEE7AF
:10011000FEE7FEE7FEE7FEE7FEE7FEE7FEE7FEE7B7
:1001200051210008ED000008202A04DB203A21FAC2
:1001300002F00021704721FA02F3D040C2F1200200
:100140009140084319467047D2B201E000F8012BF4
:10015000491EFBD270470022F6E710B513460A4647
:1001600004461946FFF7F0FF204610BDF0B480EAC0
:100170000102D40F4200B2EB410F02D20246084600
:1001800011464A0042D0C30DDDB2C1F3C752AD1AC9
:10019000202D35DAC1F3160141F4000204B15242B8
:1001A000C5F1200602FA06F12A411044B3EBD05FF4
:1001B00023D0C4B1012DA0EBC35009DCF0BC4FF03B
:1001C000004202EAC352DBB200F5000000F022B99F
:1001D000400000F1807000EBC350A0F1807040EA55
:1001E000D170490009E0490841EAC071A0EBC35051
:1001F00000F50000400800EBC350F0BC00F001B96E
:100200006142012202EB4101001BF6E7F0BC70479E
:1002100081F00041AAE780F00040A7E780EA0102F0
:1002200010B502F00043400022D04A001FD0010E5A
:1002300001EB1261C0F35600C2F3560240F4000015
:1002400042F40002A0FB022000047F39140400D015
:10025000401C50EA124001D44000491EC2B20C06B4
:1002600004EBD010401C4008802A02D003E000209C
:1002700010BD20F00100002900DA0020184310BD55
:1002800030B480EA010202F0004530F0004221F073
:10029000004013D090B1C30DD40DC2F31601C0F3CA
:1002A0001600E41A41F4000140F400027D3491424A
:1002B00001D3641C00E04900002C02DA30BC0020AD
:1002C00070474FF400000023914201D3891A034381
:1002D00040084FEA4101F7D151B1914202D14FF0AC
:1002E000004105E002D24FF0010101E06FF0010191
:1002F00003EBC450284430BC00F083B8420005D062
:10030000C0F3C7525242914201DC0020704700EB1B
:10031000C1507047C10F80EAE0700844CA079623B5
:10032000002100F077B800F0004230F000400AD021
:10033000C10D01F56071C0F3160042EA0151C20817
:10034000400711437047002001467047002801DB39
:10035000C0F10040002901DBC1F10041814270473A
:10036000002801DBC0F10040002901DBC1F10041A0
:100370008842704730B50B460146002020220124F8
:1003800009E021FA02F59D4205D303FA02F5491B63
:1003900004FA02F52844151EA2F10102F1DC30BD79
:1003A0002DE9F05F0546002092469B4688460646AA
:1003B000814640241BE02846414647462246FFF737
:1003C000B3FE53465A46C01A914110D311461846FF
:1003D000224600F02FFA2D1A67EB01084F462246FD
:1003E0000120002100F026FA17EB00094E41201EE3
:1003F000A4F10104DFDC484631462A464346BDE805
:10040000F09F0029A8BF7047401C490008BF20F09A
:100410000100704710B4B0FA80FC00FA0CF050EA0A
:10042000010404BF10BC704749B1CCF1200421FA8B
:1004300004F411FA0CF118BF012121430843A3EB86
:100440000C01CB1D4FEA00614FEA102042BF002093
:1004500010BC704700EBC35010440029A4BF10BC6F
:100460007047401C490008BF20F0010010BC7047D5
:100470002DE9FE4F804681EA0300C00F0C46009034
:1004800021F0004123F00045B8EB0200A94105D25C
:100490004046214690461C460B46024623F000404B
:1004A000104347D0270DC7F30A00C3F30A51029047
:1004B000401A019040286BDAC3F3130040F4801B0C
:1004C0000098924620B10023D2EB030A63EB0B0B9A
:1004D00001985946C0F14002504600F0ABF906467B
:1004E0000D4650465946019A00F0B3F910EB08004A
:1004F0006141002487EA115284EAE7731A4340D02D
:10050000009A62B3019A012A4FEA075215DC001BD8
:1005100061EB02014FF0004202EA0752CDE90042CE
:10052000001C41F5801132462B4600F0B3F903B0B0
:10053000BDE8F08F40462146F9E7001B61EB020160
:10054000001C41F5801300185B412018A2F500172C
:1005500047EB030140EAD570B6196D4111E06D0813
:100560004FEA360645EAC0754FEA0752001B61EBB9
:100570000201001C41F5801149084FEA30000019C2
:10058000514132462B4603B0BDE8F04F00F073B93D
:100590000098012240000023D0EB020263EBE073DD
:1005A000009821464FEAE074B8EB000061EB0401CB
:1005B000E9E783F000435BE781F0004158E72DE96C
:1005C000FE4F81EA030404F0004421F0004100944E
:1005D0004FF0000B23F0004350EA01045ED052EAD2
:1005E00003045BD0C3F30A54C1F30A552C44A4F2AC
:1005F000F3340194A0FB0254C1F3130141F48011C0
:10060000C3F3130343F4801301FB024400FB034EC6
:10061000840A970A44EA815447EA8357A4FB07688F
:1006200002958D0A05FB07854FEA932C04FB0C54B9
:100630002705029D4FEA065847EA1637B5EB08052D
:100640006EEB070C870E920E47EA811742EA83127F
:10065000A7FB0201B6EB0B0164EB00042B0D43EA90
:100660000C335E1844EB1C50DA465146E7FB02019E
:10067000C5F313044FEA0B3343EA14534FEA043231
:10068000019C43EA0603A4F10C040294009CCDE90A
:1006900000B400F0FFF803B0BDE8F08F0020014681
:1006A000F9E72DE9F04D81EA030404F0004B21F055
:1006B000004514464FF0000A23F0004150EA0502BD
:1006C00020D054EA01021DD0C5F30A570246C5F3F3
:1006D0001303C1F31300C1F30A5640F4801543F429
:1006E0008013A7EB0608101BD64608F2FD3873EB03
:1006F000050002D308F1010801E092185B41B8F14E
:10070000000F03DA00200146BDE8F08D00204FF411
:100710008011064684460EE0171B73EB050705D3D0
:10072000121B63EB050306434CEA010C49084FEA30
:10073000300092185B4150EA0107EDD152EA030004
:1007400012D082EA040083EA0501084305D0101B99
:10075000AB4106D20122002306E000224FF0004305
:1007600002E06FF0010253101AEB06004CEB085147
:1007700010EB0A0041EB0B01BDE8F04D00F07BB837
:1007800070B521F0004303430CD0C1F30A55002497
:10079000D5EB040564EB0403D617AD1AB34102DBB5
:1007A0000020014670BD201841EB025170BDC1F31D
:1007B0000A52C1F3130140F2FF3341F480119A420F
:1007C00002DA00200146704740F233439A42A2F217
:1007D000334202DC5242FFF7A7BC00F02BB8000006
:1007E00030B5041E71F1000404DB4FF000444042B8
:1007F00064EB0101141E73F1000405DB1C464FF08D
:100800000043524263EB0403994208BF904230BD5B
:10081000064C074D06E0E06840F0010394E807004D
:1008200098471034AC42F6D3FFF764FC60330008FD
:1008300080330008202A04DB203A00FA02F100206D
:1008400070479140C2F1200320FA03F3194390400E
:100850007047202A06DBCB17203A41FA02F043EA20
:10086000E07306E041FA02F3D040C2F12002914069
:1008700008431946704710B5141E73F1000408DAD6
:10088000401C41F1000192185B411A4301D120F054
:10089000010010BD2DE9F04D92469B4611B1B1FA11
:1008A00081F202E0B0FA80F220329046FFF7C2FFF8
:1008B00004460F4640EA0A0041EA0B0153465A46F5
:1008C000084313D0114653EA010019D0C8F1400281
:1008D0005046FFF729FC05460E465046594642460B
:1008E000FFF7A8FF084305D0012004E02046394661
:1008F000BDE8F08D0020054346EAE0762C433743FF
:100900000A986305E40AA0EB08000022FD0A44EA05
:1009100047540A3002D500200146E9E701051019C5
:100920006941DDE9084500196941BDE8F04DA2E7DC
:10093000FEE7704770B5044600F014F90546B4F1BF
:10094000FF3F02D004480078044400F00BF9401B3C
:10095000A042FAD370BD0000040000202DE9F84F3A
:1009600000239C46DFF8D8810F2708F1040909F11C
:10097000040A0AF1040B012202FA0CF60A6832405A
:10098000B2427CD1DFF8BCE14C68A4EB0E057445A3
:100990002BD00DDC032C34D005DC34B3012C19D062
:1009A000022C2FD11BE0112C16D0122C2AD119E0C9
:1009B000B5F5881F19D006DCB5F5803F15D0B5F523
:1009C000801F1FD111E0B5F5001F0ED0B5F5041F33
:1009D00018D10AE0CB6815E0CB681B1D12E0CB688C
:1009E00008330FE0CB680C330CE08B6823B1012B8C
:1009F00004D00823466105E0042303E008230661D0
:100A000000E00023B2F5807F01D2054601E000F14D
:100A1000040502D24FEA8C0403E0ACF108044FEA6B
:100A200084042E6807FA04FE26EA0E0603FA04F48C
:100A300046EA04042C604C6814F0805F78D0424C85
:100A4000A56945F00105A561A46904F001040094BD
:100A50002CF0030404F1804404F58034A6684FEAC6
:100A60008C754FEA157507FA05FE26EA0E0EA0F101
:100A70008046B6F5843620D0A0F1804600E057E0ED
:100A8000B6F586361BD0A0F18046B6F5883618D06C
:100A9000A0F18046B6F58A3615D0042606FA05F58B
:100AA00045EA0E05A5604C6814F4803F0DD0D8F8D7
:100AB00000401443C8F800400CE00026EEE7012691
:100AC000ECE70226EAE70326E8E7D8F8004094437B
:100AD000C8F800404C6814F4003F05D0D9F8004035
:100AE0001443C9F8004004E0D9F800409443C9F821
:100AF00000404C6814F4801F05D0DAF8004014431D
:100B0000CAF8004004E0DAF800409443CAF8004014
:100B10004C6814F4001F05D0DBF800402243CBF8EA
:100B2000002005E0DBF8004024EA0202CBF80020B8
:100B30000CF1010CBCF1100FFFF41DAFBDE8F88FF4
:100B4000000401400000111000100240C268514032
:100B5000C1607047002A01D001617047090401613A
:100B600070470000014880687047000004000020C2
:100B700070B50446002C04D094F83D00002510B157
:100B800006E0012070BD84F83C50204600F0E4FAF5
:100B9000242084F83D002068016821F001010160F3
:100BA00000F08CFC434A6168914203D84249884274
:100BB00003D304E04149884201D2012070BD40497D
:100BC000B0FBF1F1236859606368934201D8491C76
:100BD00007E04FF4967359434FF47A73B1FBF3F186
:100BE000491C236819626168914210D84900401E6F
:100BF000B0FBF1F2521CC2F30B02042A01D2042012
:100C000024E0B0FBF1F0401CC0F30B001EE0A26832
:100C1000DAB301EBC10303EB0113A0F1010CBCFB40
:100C2000F3F35B1C43F480431B051B0D37D06AB301
:100C300001EBC10202EB0111401EB0FBF1F0401CC0
:100C4000C0F30B0040F4804040F400402168C861CC
:100C5000216AE069084321680860E1682069084367
:100C600021688860A169606908432168C8602068BC
:100C7000016841F0010101602564202084F83D00F5
:100C8000256384F83E50002070BD00E009E001EBD0
:100C90004103A0F1010CBCFBF3F35B1CC4E7012092
:100CA000D4E701EB4101401EB0FBF1F0401CC0F362
:100CB0000B00C9E7A086010080841E0000093D00EA
:100CC00040420F002DE9FF4F83B004468A46934609
:100CD000DDF84490DDF84080129FFFF743FF0546A2
:100CE00094F83D00202803D007B00220BDE8F08F23
:100CF00019230122B1492046009501F083F818B16B
:100D000007B00220BDE8F08F94F83C00012808D01D
:100D1000012084F83C002068016811F0010F04D024
:100D200007E007B00220BDE8F08F016841F0010143
:100D300001602068016821F400610160222084F8CC
:100D40003D00402084F83E0000262664C4F824803C
:100D5000A4F82A909A48E062608D2085019500975A
:100D60005A4651462046069B00F006FF70B1206CA3
:100D7000042805D084F83C6007B00320BDE8F08F5C
:100D800084F83C6007B00120BDE8F08F208D38B3B7
:100D900001282ED002283CD02068016841F48061EF
:100DA00001602068416980690290208D002800F070
:100DB000F980DFF81082208D032800F2C28001281C
:100DC00037D0022853D03B460022414620460095AA
:100DD00001F018F8002877D007B00320BDE8F08FA5
:100DE0002068416981690291016841F400710160E4
:100DF000DBE72068016821F48061016072B6206839
:100E0000416981690291016841F40071016062B633
:100E1000CBE72068016841F40061016072B6206888
:100E2000416981690291016821F48061016062B6C3
:100E3000BBE72A463946204601F09BF850B1206CAA
:100E4000202803D007B00120BDE8F08F07B00320B1
:100E5000BDE8F08F20680169606A421C626201701F
:100E6000208D401E2085608D401E608596E03B46AB
:100E7000002241462046009500F0C4FF18B107B09B
:100E80000320BDE8F08F72B62068016841F400715C
:100E9000016020680169606A421C62620170208DF5
:100EA000401E2085608D401E608562B62068016905
:100EB000606A421C62620170208D401E2085608D38
:100EC000401E60856AE0FFE72068016821F48061C8
:100ED000016072B620680169606A421C626201703A
:100EE000208D401E2085608D401E60853B4600227F
:100EF00041462046009500F085FF18B107B0032059
:100F0000BDE8F08F2068016841F40071016020683D
:100F10000169606A421C62620170208D401E20855A
:100F2000608D401E608562B620680169606A421C5F
:100F300062620170208D401E2085608D401E60859C
:100F40002CE02A463946204601F013F850B1206CB7
:100F5000202803D007B00120BDE8F08F07B00320A0
:100F6000BDE8F08F20680169606A421C626201700E
:100F7000208D401E2085608D401E6085206841695F
:100F800011F0040F0AD00169606A421C62620170AC
:100F9000208D401E2085608D401E6085208D00289C
:100FA0007FF409AF202084F83D0084F83E6084F887
:100FB0003C6007B00020BDE8F08F00000200100088
:100FC0000000FFFF040001002DE9FF4F83B004463D
:100FD0008A469346DDF84490DDF84080129FFFF783
:100FE000C1FD064694F83D00202803D007B002203A
:100FF000BDE8F08F1923012255492046009600F0E4
:1010000001FF18B107B00220BDE8F08F94F83C0052
:10101000012808D0012084F83C002068016811F004
:10102000010F04D007E007B00220BDE8F08F01688F
:1010300041F0010101602068016821F40061016054
:10104000212084F83D00402084F83E0000252564DE
:10105000C4F82480A4F82A903E48E062608D208580
:10106000019600975A4651462046069B00F032FEF4
:1010700070B1206C042805D084F83C5007B00320E0
:10108000BDE8F08F84F83C5007B00120BDE8F08F38
:10109000208DB0B332463946204600F0A2FF78B129
:1010A000206C042803D007B00320BDE8F08F20682F
:1010B000016841F40071016007B00120BDE8F08FC4
:1010C000606A411C6162216800780861208D401EC1
:1010D00083B22385608D401E60852068416911F0D0
:1010E000040F0BD053B1636A591C61621978016116
:1010F000208D401E2085608D401E6085208D00283B
:10110000C8D132463946204600F050FE78B1206CF6
:10111000042803D007B00320BDE8F08F20680168E1
:1011200041F40071016007B00120BDE8F08F206834
:10113000016841F400710160202084F83D0084F8CA
:101140003E5084F83C5007B00020BDE8F08F00000E
:10115000020010000000FFFF10B586B000210091D2
:1011600001910291039100680F4988421AD10F4CF6
:10117000A06940F00800A061A069694600F008007D
:101180000490C02000901220019003200390084892
:10119000FFF7E4FBE06940F40010E061E06900F46F
:1011A0000010049006B010BD005400400010024032
:1011B000000C014002488168027811448160704748
:1011C0000400002010B50748016841F010010160DB
:1011D000032000F07DF8002000F006F800F026F86B
:1011E000002010BD0020024070B504460D4D4FF4A4
:1011F0007A712878B1FBF0F00B490968B1FBF0F087
:1012000000F0B8FB08B1012070BD102C07D20022FD
:101210002146501E00F028F86C60002070BD0120AF
:1012200070BD000004000020000000200C4808B53C
:10123000816941F001018161816901F00101009141
:10124000C16941F08051C161C06900F080500090D7
:101250000448416821F0E06141F00071416008BD3F
:10126000001002400000014010B4184B1B68C3F38B
:101270000223C3F1070CBCF1040F01D94FF0040C99
:101280001C1D072C01D2002300E0DB1E012404FA00
:101290000CFCACF1010C0CEA0101994004FA03F3D7
:1012A0005B1E1A401143002808DA00F00F0000F11D
:1012B000E020090180F8141D10BC704700F1E02007
:1012C000090180F8001410BC704700000CED00E02C
:1012D00000F00700064A11684FF6FF03194041EA83
:1012E000002040F0FD7040F080601060704700000A
:1012F0000CED00E02DE9F04704460D46DFF8A08133
:10130000D8F8000000F00700A8420FD2D8F800007B
:1013100020F007002843C8F80000D8F8000000F0CB
:101320000700A84202D00120BDE8F08720685D4F89
:1013300010F0020F14D010F0040F03D0786840F4BE
:10134000E0607860207810F0080F03D0786840F4EF
:10135000605078607868A16820F0F00008437860F9
:10136000207810F0010F5FD06068012806D00228B5
:101370000BD0396811F0020F29D00AE0396811F456
:10138000003F06D10120BDE8F087396811F0007FE9
:101390001AD0796821F0030108437860FFF7E2FB77
:1013A0000646606841F28839012813D0022824D00B
:1013B000786810F00C0F37D0FFF7D4FB801B48453E
:1013C0002ED90320BDE8F0870120BDE8F087012079
:1013D000BDE8F087786800F00C00042824D0FFF7FF
:1013E000C1FB801B484502D90320BDE8F08778681F
:1013F00000F00C000428F2D116E0786800F00C0030
:10140000082811D0FFF7AEFB801B484502D9032006
:10141000BDE8F087786800F00C000828F2D103E0FE
:10142000786810F00C0FC7D1D8F8000000F0070062
:10143000A8420FD9D8F8000020F007002843C8F8C8
:101440000000D8F8000000F00700A84202D00120F8
:10145000BDE8F087207810F0040F05D07868E168C7
:1014600020F4E06008437860207810F0080F06D080
:101470007868216920F4605040EAC100786000F08B
:101480003DF87968084AC1F30311515CC840074927
:1014900008600020FFF7A8FE0020BDE8F0870000EC
:1014A0000020024000100240AC3200080000002082
:1014B00001480068704700000000002000B5FFF7F9
:1014C000F7FF04494968044AC1F30221515CC8404E
:1014D00000BD000000100240BC32000800B5FFF75C
:1014E000E7FF04494968044AC1F3C221515CC8407E
:1014F00000BD000000100240BC32000885B015A0FD
:10150000836842680168C068039302920191049065
:1015100014A000680090144B5968144801F00C02A4
:10152000042A11D0082A0FD101A8C1F38342805C9C
:1015300011F4803F0AD05968C1F340411DF80110F1
:101540000A4A5043B0FBF1F005B07047084905B0B6
:101550004843704702030405060708090A0B0C0DEF
:101560000E0F1010010200000010024000127A005D
:1015700000093D002DE9F84F0446FA4D207810F09F
:10158000010F68D0686800F00C00042808D0686873
:1015900000F00C0008280DD1686810F4803F09D0D5
:1015A000286810F4003F56D06068002853D101200D
:1015B000BDE8F88F6068B0F5803F15D0C8B1B0F5D0
:1015C000A02F1FD0286820F480302860286820F4DD
:1015D00080202860606858B3FFF7C4FA0646286880
:1015E00010F4003F17D036E0286840F480302860BF
:1015F000F0E7286820F480302860286820F48020F4
:101600002860E7E7286840F480202860286840F4D4
:1016100080302860DEE7FFF7A5FA801B642802D936
:101620000320BDE8F88F286810F4003FF3D012E0E3
:10163000FFF798FA0646286810F4003F0BD0FFF732
:1016400091FA801B642802D90320BDE8F88F28682E
:1016500010F4003FF3D12078C34F10F0020F4FF089
:10166000010B4FF0000854D0686810F00C0F14D034
:10167000686800F00C00082803D1686810F4803F07
:101680000BD0206978B3C7F800B0FFF76BFA0646B5
:10169000286810F0020F12D01DE0286810F0020F29
:1016A00005D02069012802D00120BDE8F88F286804
:1016B000616920F0F80040EAC100286029E0FFF7E6
:1016C00051FA801B022802D90320BDE8F88F286850
:1016D00010F0020FF3D02868616920F0F80040EAAA
:1016E000C100286015E0FFE7C7F80080FFF73AFA6D
:1016F0000646286810F0020F0BD0FFF733FA801B64
:10170000022802D90320BDE8F88F286810F0020FE4
:10171000F3D1207810F0080F30D09448A169C1B1FE
:10172000C0F800B0FFF71EFA0646686A10F0020F14
:101730000BD1FFF717FA801B022802D90320BDE85E
:10174000F88F686A10F0020FF3D0012000F0C4FC9B
:1017500014E0C0F80080FFF705FA0646686A10F04A
:10176000020F0BD0FFF7FEF9801B022802D90320DD
:10177000BDE8F88F686A10F0020FF3D1207810F0FE
:10178000040F6FD00026E86910F0805F08D1E86987
:1017900040F08050E861E86900F080500090012638
:1017A000DFF8CCA1DAF8000010F4807F1BD1DAF862
:1017B000000040F48070CAF80000FFF7D3F98146BA
:1017C000DAF8000010F4807F0DD1FFF7CBF9A0EB21
:1017D0000900642802D90320BDE8F88FDAF8000078
:1017E00010F4807FF1D0E068012816D0D0B1052830
:1017F00021D0286A20F001002862286A20F0040025
:101800002862E06841F2883A68B3FFF7ABF9814695
:10181000286A10F0020F17D03AE0286A40F0010061
:101820002862EEE7286A20F001002862286A20F08A
:1018300004002862E5E7286A40F004002862286A6C
:1018400040F001002862DCE7FFF78CF9A0EB09000B
:10185000504502D90320BDE8F88F286A10F0020F26
:10186000F2D015E01AE0FFE7FFF77CF98146286A1D
:1018700010F0020F0CD0FFF775F9A0EB09005045EE
:1018800002D90320BDE8F88F286A10F0020FF2D1C8
:10189000012E03D1E86920F08050E861E069E8B3E7
:1018A000696801F00C01082958D0022810D0C7F847
:1018B0006080FFF757F90446286810F0007F4AD08F
:1018C000FFF750F9001B022841D90320BDE8F88F2B
:1018D000C7F86080FFF746F90646286810F0007FD9
:1018E0000BD0FFF73FF9801B022802D90320BDE887
:1018F000F88F286810F0007FF3D1206AB0F5803FA0
:1019000005D16868A16820F4003008436860616A06
:10191000206A0843696821F4741100E01BE0084361
:101920006860C7F860B0FFF71DF90446286810F03A
:10193000007F10D1FFF716F9001B022802D90320FF
:10194000BDE8F88F286810F0007FF3D003E0286826
:1019500010F0007FB4D10020BDE8F88F0120BDE871
:10196000F88F000000100240000042428004424212
:1019700000700040401EB0F1807F01D3012070470D
:101980004FF0E0214861044AF02010700020886187
:10199000072008610020704723ED00E070B5044681
:1019A000002C04D094F83900002510B106E0012085
:1019B00070BD84F83850204600F022F8242084F8C6
:1019C00039002068C16821F40051C160204600F050
:1019D000E3FB2068016921F49041016120684169BD
:1019E00021F02A0141612068C16841F40051C160C1
:1019F000E563202084F8390084F83A00002070BDA7
:101A000030B585B0002400940194029403940068DA
:101A10001449884224D11448816941F4804181618C
:101A2000816901F480410491816941F0040181617F
:101A300080690E4D00F0040004904FF40070009097
:101A4000022001900320039069462846FEF786FF96
:101A50002815CDE90004694628460294FEF77EFF6A
:101A600005B030BD003801400010024000080140C0
:101A70002DE9F84304460D4691461E4694F8390078
:101A8000202802D00220BDE8F8834DB3B9F1000F41
:101A900026D094F83800012825D0012084F8380099
:101AA0000027E763212084F83900FFF75BF88046C0
:101AB000A4F82490A4F82690E08CA0B3E08C401EFB
:101AC000E084A068B0F5805F10D0434600228021FA
:101AD0002046009600F03AFCF0B10320BDE8F88300
:101AE0000120BDE8F8830220BDE8F88343460022C8
:101AF00080212046009600F029FC10B10320BDE8AB
:101B0000F88328882168C0F308004860206908B17C
:101B10006D1C05E0AD1C03E0216815F8010B486061
:101B2000E08C0028CAD1434600224021204600967E
:101B300000F00CFC10B10320BDE8F883202084F8ED
:101B4000390084F838700020BDE8F883FEE70168AA
:101B50004A6912F4806F0DD06FF480624A610421EB
:101B6000016400210163202280F83D2080F83C10B0
:101B700001207047002070472DE9F84F0446DDF83A
:101B800028A00B9D0F46904699462068016841F4B5
:101B9000806101602068016841F4807101605346F2
:101BA00000224FF001112046009500F02BF910B1F2
:101BB0000320BDE8F88F216807F0FE000861DFF818
:101BC00010B12B4652465946204600F075F940B1F7
:101BD000206C042802D00320BDE8F88F0120BDE866
:101BE000F88F20684169806900902A465146204656
:101BF00000F0F7F968B1206C042802D00320BDE89A
:101C0000F88F2068016841F4007101600120BDE88F
:101C1000F88F08F0FF06B9F1010F0FD021684FEAE5
:101C2000182008612A465146204600F0DAF980B1B2
:101C3000206C042805D00320BDE8F88F20680661D9
:101C400009E02068016841F4007101600120BDE8ED
:101C5000F88F206806612A465146204600F0C1F9F7
:101C600068B1206C042802D00320BDE8F88F2068FA
:101C7000016841F4007101600120BDE8F88F20681F
:101C8000016841F480710160534600224FF0011158
:101C90002046009500F0B6F810B10320BDE8F88F9B
:101CA0002168F8B240F0010008612B4652465946BF
:101CB000204600F001F940B1206C042802D0032036
:101CC000BDE8F88F0120BDE8F88F0020BDE8F88F4F
:101CD000020001002DE9F8430446DDF82090099F39
:101CE0000D46164698462068016841F480710160EF
:101CF0004B4600224FF001112046009700F082F879
:101D000010B10320BDE8F883216805F0FE000861EA
:101D10003B464A462449204600F0CEF840B1206CAC
:101D2000042802D00320BDE8F8830120BDE8F88331
:101D300020684169806900903A464946204600F093
:101D400050F968B1206C042802D00320BDE8F88364
:101D50002068016841F4007101600120BDE8F8834A
:101D6000F5B2B8F1010F0ED02168300A08613A4689
:101D70004946204600F035F980B1206C042805D092
:101D80000320BDE8F8832068056109E02068016848
:101D900041F4007101600120BDE8F883206805610D
:101DA0000020BDE8F88300000200010070B5044681
:101DB0000D4616462068406910F0040F20D12046D9
:101DC000FFF7C5FE08B1012070BDB5F1FF3F12D08D
:101DD00025B1FEF7C7FE801BA8420CD9206C40F04D
:101DE0002000206400202063202184F83D1084F826
:101DF0003C00032070BD2068406910F0040FDED065
:101E0000002070BD2DE9F0470446DDF820900D4616
:101E100017461E46C5F307482068B8F1010F1ED0CB
:101E2000806925EA00000004000C22D00020B8429E
:101E30002FD1B6F1FF3F1ED02EB1FEF793FEA0EBDF
:101E40000900B04217D900202063202184F83D10FA
:101E500084F83E0084F83C000320BDE8F087406928
:101E600025EA00000004000C01D00020DFE701207B
:101E7000DDE70120DBE7B8F1010F0DD020688069B4
:101E800025EA00000004000C13D04FF0000CBC4504
:101E9000CFD00020BDE8F0872068406925EA000027
:101EA0000004000C02D04FF0000CF0E74FF0010CE2
:101EB000EDE74FF0010CEAE72DE9F04704460D4647
:101EC00016461F46C5F307482068B8F1010F22D017
:101ED000806925EA00000004000C3FD04FF00009A3
:101EE0004FF0200A2068406910F4806F1AD02068F3
:101EF000016841F40071016021686FF480604861FD
:101F000004202064C4F8309084F83DA084F83C900C
:101F10000120BDE8F087406925EA00000004000CBC
:101F20001CD0DBE7B6F1FF3F0ED026B1FEF71AFE5C
:101F3000C01BB04208D9C4F8309084F83DA084F8A2
:101F40003C900320BDE8F087B8F1010F09D020686C
:101F5000806925EA00000004000CC3D10020BDE820
:101F6000F0872068406925EA00000004000CB9D120
:101F7000F4E72DE9F04104460D4616462068406915
:101F800010F0400F2AD100274FF020082068406948
:101F900010F0100F0CD021686FF01000486127641A
:101FA000276384F83D8084F83C700120BDE8F0810F
:101FB00025B1FEF7D7FD801BA8420AD9206C40F05E
:101FC0002000206484F83D8084F83C700320BDE844
:101FD000F0812068406910F0400FD7D00020BDE8A4
:101FE000F08170B504460D4616462068406910F031
:101FF000800F20D12046FFF7AAFD08B1012070BD57
:10200000B5F1FF3F12D025B1FEF7ACFD801BA84211
:102010000CD9206C40F02000206400202063202197
:1020200084F83D1084F83C00032070BD20684069AE
:1020300010F0800FDED0002070BD000070B586B0BB
:10204000002420480094019402940394816941F093
:1020500010018161816901F010010491816941F0F1
:1020600020018161816901F020010491816941F0C1
:1020700004018161816901F004010491816941F0E9
:10208000080181618069104E00F008004FF400558E
:102090000490002229463046FEF75CFD0121022013
:1020A000CDE90210CDE9005169463046FEF756FCF5
:1020B0000820CDE90004694604480294FEF74EFC6E
:1020C00006B070BD00100240001001400008014041
:1020D000FEE770477047000081B007494FF4FA529D
:1020E0000968B1FBF2F14843009000BF0098411E1F
:1020F0000091FAD201B07047000000207047FFF74E
:1021000059B830B58FB028216846FEF724F814215D
:102110000AA8FEF720F801210804CDE900100024E8
:10212000029402250491CDE907504FF4E010099084
:102130006846FFF71FFA0F20CDE90A056802CDE9CE
:102140000C4002210AA80E94FFF7D4F80FB030BD5E
:102150000D48016841F00101016041680B4A1140DE
:10216000416001680A4A11400160016821F4802140
:102170000160416821F4FE0141604FF41F0181605C
:102180000449C00308607047001002400000FFF8D7
:10219000FFFFF6FE08ED00E02DE9F041044620685F
:1021A0000169E26821F44051114301612169A0688D
:1021B0000143606901432068C26822F4037222F47B
:1021C000A0521143C16020684169A26921F44071A5
:1021D0001143416120685C4D3226A0F18041B1F588
:1021E0009C3158D0FFF76AF900EBC00101EB0010F9
:1021F00061688900B0FBF1F7FFF760F900EBC001FF
:1022000001EB001061688900B0FBF1F0A5FB001044
:1022100040096FF01801484307EB800006EB0010FF
:10222000A5FB0010400900F0F007FFF747F900EBAD
:10223000C00101EB001061688900B0FBF1F0A5FB63
:102240000010400907EB0017FFF738F900EBC00159
:1022500001EB001061688900B0FBF1F8FFF72EF97F
:1022600000EBC00101EB001061688900B0FBF1F0E8
:10227000A5FB001040096FF01801484308EB8000EF
:1022800006EB0010A5FB00102168C0F34310384492
:102290008860BDE8F081FFF721F900EBC00101EB98
:1022A000001061688900B0FBF1F7FFF717F900EB48
:1022B000C00101EB001061688900B0FBF1F0A5FBE3
:1022C000001040096FF01801484307EB800006EB4F
:1022D0000010A5FB0010400900F0F007FFF7FEF822
:1022E00000EBC00101EB001061688900B0FBF1F068
:1022F000A5FB0010400907EB0017FFF7EFF800EB14
:10230000C00101EB001061688900B0FBF1F8FFF734
:10231000E5F800EBC00101EB001061688900B0FB3B
:10232000F1F0A5FB001040096FF01801484308EBDD
:10233000800006EB0010A5FB00102168C0F34310DD
:1023400038448860BDE8F0811F85EB512DE9F041EC
:102350000446069D884617461E462068006838EAEF
:10236000000020D00020B84227D1B5F1FF3F1CD09B
:1023700025B1FEF7F7FB801BA84216D92068C1687B
:1023800021F4D071C1602068416921F001014161EF
:10239000202084F8390084F83A00002084F83800BE
:1023A0000320BDE8F0810120DDE72068006838EAFD
:1023B000000005D00020B842D7D00020BDE8F08151
:1023C0000120F8E7FEE700000FB4054B10B503A9A4
:1023D000044A029800F04EF910BC5DF814FB0000AE
:1023E0009D2F000810000020490050EAC12018BFAE
:1023F00004204A0D18BF40F0010040F2FF72B2EB1A
:10240000515F08BF40F00200012808BF0520704757
:102410002DE9F0414F1E00EBC7010446D1E9000150
:1024200015461E4637F006020DD02A463346FEF703
:10243000C6F87F1E04EBC703D3E90023FEF718F8A4
:1024400037F00602F1D1022F25D0042F13D0062F2A
:1024500018BFBDE8F0812A463346FEF7B0F8D4E94C
:102460000A23FEF705F82A463346FEF7A8F8D4E912
:102470000823FDF7FDFF2A463346FEF7A0F8D4E90E
:102480000623FDF7F5FF2A463346FEF798F8D4E910
:102490000423FDF7EDFF2A463346FEF790F8D4E912
:1024A0000223FDF7E5FF2A463346FEF788F8D4E914
:1024B0000023BDE8F041FDF7DBBF0122FEF760B964
:1024C000024A00201107FEF75BB9000001FDFFFF83
:1024D00002E008C8121F08C1002AFAD170477047ED
:1024E000002001E001C1121F002AFBD1704700004B
:1024F0002DE9FF5F82B00021DDE90430020DDDF837
:1025000040B0034318D044F61050A2F2FF324243C9
:102510001514119801281FD0A5EB0B00401C5FEA91
:10252000000A4FF000064E4FDFF83891B046504693
:1025300015D5CAF1000413E0119801244AA301281B
:1025400001D16FEA0B010298119AC0E90031C0E98C
:10255000024206B0BDE8F09FCBF10000DFE7044681
:102560000021404A491842EB0450CDE9001012E026
:10257000E00707D032463B4640464946FEF71FF883
:102580008046894632463B4610461946FEF717F804
:1025900006460F466410002CEAD1DDE90401DDE9AE
:1025A0000023BAF1000F06DAFEF709F842464B465F
:1025B000FEF705F805E0FEF774F842464B46FEF7D5
:1025C00070F804460E460022284BFEF709F903D89E
:1025D0004FF0FF30014607E00022254B20463146F0
:1025E000FDF746FFFEF7E3F8102409E0002C0ADBB4
:1025F0000A220023FDF7D4FE039B30321A55641ED5
:1026000050EA0102F2D1641C039AC4F1110314448C
:10261000119A012A03D0012208430DD10AE0084390
:1026200004D000204FF0110B119072E7A3EB0B05C3
:102630006D1E0DE05B4504DD4FF0000205F1010564
:1026400004E003DA4FF00002A5F10105002AECD006
:1026500002981199C0E90231C0E9004579E700000C
:10266000000014400000F03F300000000000F04384
:102670000000E03F2DE9FF4F95B09A468846064698
:102680000025EEE1252877D100242746F94A0121CB
:10269000039400E0044316F8013F203B01FA03F0E5
:1026A0001042F7D130782A2811D06FF02F033078FC
:1026B000A0F13002092A16D8039A44F0020402EB72
:1026C000820203EB42021044761C0390EFE758F8B5
:1026D000042B0392002A03DA504244F4005403907E
:1026E00044F00204761C30782E2816D116F8010F1B
:1026F00044F004042A280DD06FF02F023078A0F1A6
:102700003003092B09D807EB870302EB4303C718F3
:10271000761CF3E758F8047B761C30786C280FD0D1
:1027200006DC4C2817D068280DD06A2814D104E0A4
:10273000742810D07A280FD10DE044F400140AE078
:1027400044F4801401E044F440147278824202D1CF
:1027500004F58014761C761C307866280BD013DCC8
:10276000582877D009DC002875D04528F6D04628AF
:10277000F4D047281AD193E118E0632835D06428B3
:1027800079D0652812D18BE1702873D008DC6728D6
:10279000F1D069286FD06E280DD06F2806D1ACE03B
:1027A00073282CD0752874D0782853D052461799A6
:1027B00090476D1C54E1C4F30250022809D003284D
:1027C0000DD0D8F8001004280DD00D6008F10408D1
:1027D00046E1D8F80010EA17C1E90052F6E7D8F848
:1027E00000100D80F2E70D70F0E718F8041B8DF86B
:1027F000001000208DF80100EB46012003E058F89E
:1028000004BB4FF0FF3061074FF0000102D40DE030
:1028100009F101018946B9420FDA8145F8DB1BF85D
:1028200009100029F4D108E009F10101894681422B
:10283000FADB1BF809100029F6D103985346A0EBE8
:10284000090721463846179A00F080FA284400EB21
:10285000090507E044E008E10DE01BF8010B5246D2
:1028600017999047B9F10109F7D2534621463846E6
:10287000179AF2E039E00A21C4F302524FF0000B3C
:102880000091022A06D058F8040BC117032A09D078
:102890000AE023E008F1070020F00702F2E8020155
:1028A000904605E000B2C117042A01D140B2C11719
:1028B000002906DA0A460021404261EB02012D227E
:1028C00002E0220504D52B228DF80420012203E02A
:1028D000E20701D02022F7E7914657E00A2100E005
:1028E00010214FF0000B00910BE010214FF0000B76
:1028F00044F004040827009103E008204FF0000B87
:102900000090C4F30252022A05D058F8040B0021AB
:10291000032A08D008E008F1070020F00702F2E8D7
:102920000201904603E080B2042A00D1C0B24FF009
:10293000000922072AD53278702A07D0DDF800C0B6
:102940008CF0100C5CEA0B0C05D00EE040228DF8E8
:102950000420012208E050EA010306D030238DF85C
:1029600004308DF8052002229146009B83F0080375
:1029700053EA0B030AD150EA010201D1620705D5DF
:1029800030228DF804204FF001097F1E3278582A3A
:1029900004D039A20C920CAA02920BE03BA2F9E7F8
:1029A0005B46009AFDF7FCFC0C9B9B5C029A521E56
:1029B0000292137050EA0102F2D1029804A9081A97
:1029C00000F1200B600702D524F4803400E00127D9
:1029D0005F4502DDA7EB0B0000E0002000EB0B01E0
:1029E000009003984944401A0390E00306D45346EC
:1029F0002146179A039800F0A9F90544002706E03C
:102A000001A85246C05D179990476D1C7F1C4F4529
:102A1000F6DBE0030CD553462146179A039800F0E5
:102A200095F9054404E030205246179990476D1CF3
:102A30000099481E00900029F5DC08E002980299F0
:102A400052460078491C0291179990476D1CBBF1C2
:102A50000001ABF1010BF1DC5BE100F065F905442D
:102A6000761C307800287FF40DAE19B02846BDE8FA
:102A7000F08F000009280100303132333435363709
:102A800038396162636465660000000030313233BA
:102A9000343536373839414243444546000000005A
:102AA000600700D4062708F1070020F00700F0E8CF
:102AB0000223804603F0004C5FEA0C0001D097A08F
:102AC00009E0200501D596A005E0E00701D095A01A
:102AD00001E0AFF24C001390307823F000436528FA
:102AE0000CD006DC452809D046281DD047287FD1C8
:102AF0003BE0662818D067287AD136E00021112FF4
:102B000001DB112000E0781CCDE9000104A90CA82C
:102B1000FFF7EEFCDDE90D010C9A4FF0000B07F119
:102B20000109109200914EE04FF000400097CDE96E
:102B3000011004A90CA8FFF7DBFCDDE90D020C9BDA
:102B40000F994FF0000B91461093009211B9791C28
:102B500000EB0109B7EB090003D4C0F1FF3B07F11B
:102B60000109A9EB0700019042E0012F00DA0127DB
:102B70000021112F01DD112000E03846CDE90001D0
:102B800004A90CA8FFF7B4FCDDE90D010C9A009133
:102B90004FF0000BB946109221070FD4009A4A4516
:102BA00003DA914601E0A9F10109B9F1010F05DD50
:102BB000109AA9F10101515C3029F4D0B84202DA2F
:102BC00010F1040F03DA0121CDE9011010E0002813
:102BD00003DC8344A9EB000102E0411C494500DD10
:102BE0008946A0EB0B00401C01904FF00040029082
:102BF000200705D40198484502DB4FF0FF300190D3
:102C000000208DF84B0002980DF14B07B0F1004FFA
:102C100025D002200C902B200D90029800280CDA71
:102C2000404202902D200D9007E00A210298FDF706
:102C3000A1FB3031029007F8011D0C99481E0C9041
:102C40000029F2DC02980028EFD1791E0D98087057
:102C5000307800F0200040F0450007F8020D11A880
:102C6000C01BC01D02901398007800B1012000EB3A
:102C70000901019801EBE071029801440398401AA0
:102C8000401E0390E00306D453462146179A03984A
:102C900000F05CF805441398007818B15246179973
:102CA00090476D1CE00323D553462146179A03989D
:102CB00000F04CF805441BE0BBF1000F07DB009867
:102CC000584504DD1098179910F80B0001E017998A
:102CD00030205246904701980BF1010B401E05F140
:102CE0000105019004D12E205246179990476D1C82
:102CF000B9F10001A9F10109DEDC05E017F8010BCB
:102D00005246179990476D1C0299481E029000295F
:102D1000F4DC53462146179A03989EE62D000000E6
:102D20002B000000200000002DE9F04104460025A2
:102D30001E461746880404D405E039462020B047D3
:102D40006D1C641EF9D52846BDE8F0812DE9F041DF
:102D5000044600251E469046C80301D5302700E0F2
:102D60002027880404D505E041463846B0476D1C4D
:102D7000641EF9D52846BDE8F08100002DE9F84F22
:102D800004460D4621F0004000917349814211DC58
:102D90007249884201DC06D12CB120462946BDE8A3
:102DA000F84FFFF78ABB6E48002DCCBF6D496E49C6
:102DB000BDE8F88F6D49814211DD6D498142D8BF70
:102DC0004FF0FF366DDD20462946FFF70DFB042846
:102DD00008BFFFF775FB20462946BDE8F88F654917
:102DE000654F25F00045814233DD6449814219DD9C
:102DF000002632464FF0804320462946FDF738FB37
:102E000080468A46012220462946FDF7B9FC002269
:102E10003B46FDF7CEFB42465346FDF742FC0446D7
:102E20000D463EE001260022BA463B462046294692
:102E3000FDF71EFB80460F460022534620462946DA
:102E4000FDF7B7FB42463B46FDF72BFC04460D461B
:102E500027E04B4981421BDDDFF828A10226002232
:102E6000534620462946FDF7AAFB00223B46FDF7C4
:102E7000FFFA80460F460022534620462946FDF7BA
:102E800098FB42463B46FDF70CFC04460D4608E025
:102E9000032622462B4600203B49FDF702FC044650
:102EA0000D4622462B4610461946FDF788FB8B46F9
:102EB000824602460B46FDF782FB07460246334830
:102EC00088460B4606217844FFF7A2FA52465B4635
:102ED000FDF775FB82462E488B463A464346052150
:102EE0007844FFF795FA3A464346FDF768FB0246F9
:102EF0000B46002E504659460CDAFDF7B9FA224629
:102F00002B46FDF75CFB01B022462B46BDE8F04F97
:102F1000FDF752BBFDF7ACFA22462B46FDF74FFBFF
:102F20001C4A7A4402EBC603D3E90023FDF741FBB8
:102F300022462B46FDF73DFB174A7A4402EBC603B7
:102F4000D3E90023FDF738FB009A002AB8BF81F0CF
:102F50000041BDE8F88F0000000010440000F07F41
:102F6000182D4454FB21F93FFB21F9BF0000DC3F41
:102F70000000203E0000F33F0000F03F0000E63F6D
:102F8000008003400000F83F0000F0BF660400002E
:102F900024040000C20300008A03000013B54FF0B0
:102FA000FF33012269460248FEF762FD00981CBD0E
:102FB000680000207FB5012403AD7020CDE90054E6
:102FC0008DF80C004FF47A76234600223C210E48FF
:102FD0000296FDF7F9FF2020CDE900548DF80C0092
:102FE00001231A463C2108480296FDF7EDFF002018
:102FF000CDE900548DF80C00012302223C21024847
:103000000296FDF7E1FF7FBD1400002070B586B089
:103010000C4605464FF47A72062103A88DE8070096
:10302000012303223C210D48FDF74CFEBDF80C00A6
:1030300040BA00B2FDF76EF9094E3146FDF720F9AE
:103040002860BDF8100040BA00B2FDF763F93146C0
:10305000FDF716F9206006B070BD000014000020D6
:10306000004088442DE9FC410C4607461E461546A3
:1030700001A96846FFF7CAFF38460099FDF7CBF86B
:103080002946FDF7CBF8054621460198FDF7C0F823
:103090003146FDF7C3F84FF400021F4995421DDB8E
:1030A00090420BDB2946FDF7EBF8FDF73CF9FFF703
:1030B00065FEC0EBC001C1EB801029E088420DD352
:1030C0002946FDF7DDF8FDF72EF9FFF757FEC0EBB7
:1030D000C001C1EB801000F5B47019E015F0FF4F8E
:1030E00008D1904201DB5A2413E0884202D34FF406
:1030F00087740EE08D420CD32946FDF7C1F8FDF729
:1031000012F9FFF73BFEC0EBC001C1EB8010B430F9
:1031100004B22046BDE8FC81000080802DE9FF4F0D
:103120000024834683B092468946A0462646274619
:10313000254629A0FFF748F901A96846FFF766FF71
:1031400040460099FDF702F901D2009800E04046A0
:10315000804630460099FDF703F900D2009E3846BC
:103160000199FDF7F3F800D2019F28460199FDF778
:10317000F7F800D2019DC820FDF7DCFB641CE4B227
:1031800017A0FFF721F9642CD6D116A0FFF71CF980
:1031900031464046FCF7EAFF4FF0FF342146FDF789
:1031A000ADF8CBF8000029463846FCF7DFFF214692
:1031B000FDF7A4F8C9F8000031464046FDF728F8AD
:1031C00001464FF08040FDF75BF8CAF80000069911
:1031D000086007B0BDE8F08F73746172740000007E
:1031E0002E2E2E00656E64001FB5FDF7EBFFFEF777
:1031F00088FFFEF723FF2448224900240160234969
:10320000C0E901144FF48041C0E903414461846185
:10321000C4610462FDF7ACFC1B481D4954300160D9
:103220004FF4E131C0E901140C21C460C0E904414C
:103230008461C461FEF7B2FBC820FDF77BFBFFF79A
:10324000B9FE03AB02AA01A96846FFF767FF114D5B
:103250004FF400544FF47A769DE80F00FFF702FF19
:10326000FDF758F8FDF75FF802460B460AA0FFF796
:10327000ABF821462846FDF769FC3046FDF75AFBBE
:10328000EAE700000054004014000020A08601007E
:1032900000380140001001404D6167616E676C6548
:1032A000203D20252E336620A1E300000000000011
:1032B00000000000010203040607080900000000E6
:1032C00001020304000000004FBB610567ACDD3F55
:1032D000182D4454FB21E93F9BF681D20B73EF3F3D
:1032E000182D4454FB21F93FE2652F227F2B7A3CB5
:1032F000075C143326A6813CBDCBF07A8807703C6E
:10330000075C143326A6913CC4EB98999999C9BFE0
:10331000711623FEC671BCBF6D9A74AFF2B0B3BF15
:103320009AFDDE522DDEADBF2F6C6A2C44B4A2BFD5
:103330000D5555555555D53FFF8300922449C23F41
:103340006E204CC5CD45B73F513DD0A0660DB13F75
:10335000EB0D76244B7BA93F11DA22E33AAD903F87
:10336000803300080000002014000000D024000872
:10337000943300081400002094040000E0240008A6
:1033800000A24A040100000010000000000000003C
:043390000000000039
:04000005080000ED02
:00000001FF
